{
  "contractName": "TinoToken",
  "abi": [
    {
      "inputs": [],
      "stateMutability": "nonpayable",
      "type": "constructor"
    },
    {
      "anonymous": false,
      "inputs": [
        {
          "indexed": true,
          "internalType": "address",
          "name": "owner",
          "type": "address"
        },
        {
          "indexed": true,
          "internalType": "address",
          "name": "spender",
          "type": "address"
        },
        {
          "indexed": false,
          "internalType": "uint256",
          "name": "value",
          "type": "uint256"
        }
      ],
      "name": "Approval",
      "type": "event"
    },
    {
      "anonymous": false,
      "inputs": [
        {
          "indexed": true,
          "internalType": "address",
          "name": "from",
          "type": "address"
        },
        {
          "indexed": true,
          "internalType": "address",
          "name": "to",
          "type": "address"
        },
        {
          "indexed": false,
          "internalType": "uint256",
          "name": "value",
          "type": "uint256"
        }
      ],
      "name": "Transfer",
      "type": "event"
    },
    {
      "inputs": [],
      "name": "_totalSupply",
      "outputs": [
        {
          "internalType": "uint256",
          "name": "",
          "type": "uint256"
        }
      ],
      "stateMutability": "view",
      "type": "function"
    },
    {
      "inputs": [],
      "name": "decimals",
      "outputs": [
        {
          "internalType": "uint8",
          "name": "",
          "type": "uint8"
        }
      ],
      "stateMutability": "view",
      "type": "function"
    },
    {
      "inputs": [],
      "name": "name",
      "outputs": [
        {
          "internalType": "string",
          "name": "",
          "type": "string"
        }
      ],
      "stateMutability": "view",
      "type": "function"
    },
    {
      "inputs": [],
      "name": "symbol",
      "outputs": [
        {
          "internalType": "string",
          "name": "",
          "type": "string"
        }
      ],
      "stateMutability": "view",
      "type": "function"
    },
    {
      "inputs": [],
      "name": "totalSupply",
      "outputs": [
        {
          "internalType": "uint256",
          "name": "",
          "type": "uint256"
        }
      ],
      "stateMutability": "view",
      "type": "function"
    },
    {
      "inputs": [
        {
          "internalType": "address",
          "name": "account",
          "type": "address"
        }
      ],
      "name": "balanceOf",
      "outputs": [
        {
          "internalType": "uint256",
          "name": "",
          "type": "uint256"
        }
      ],
      "stateMutability": "view",
      "type": "function"
    },
    {
      "inputs": [
        {
          "internalType": "address",
          "name": "recipient",
          "type": "address"
        },
        {
          "internalType": "uint256",
          "name": "amount",
          "type": "uint256"
        }
      ],
      "name": "transfer",
      "outputs": [
        {
          "internalType": "bool",
          "name": "success",
          "type": "bool"
        }
      ],
      "stateMutability": "nonpayable",
      "type": "function"
    },
    {
      "inputs": [
        {
          "internalType": "address",
          "name": "spender",
          "type": "address"
        },
        {
          "internalType": "uint256",
          "name": "amount",
          "type": "uint256"
        }
      ],
      "name": "approve",
      "outputs": [
        {
          "internalType": "bool",
          "name": "success",
          "type": "bool"
        }
      ],
      "stateMutability": "nonpayable",
      "type": "function"
    },
    {
      "inputs": [
        {
          "internalType": "address",
          "name": "sender",
          "type": "address"
        },
        {
          "internalType": "address",
          "name": "recipient",
          "type": "address"
        },
        {
          "internalType": "uint256",
          "name": "amount",
          "type": "uint256"
        }
      ],
      "name": "transferFrom",
      "outputs": [
        {
          "internalType": "bool",
          "name": "success",
          "type": "bool"
        }
      ],
      "stateMutability": "nonpayable",
      "type": "function"
    },
    {
      "inputs": [
        {
          "internalType": "address",
          "name": "owner",
          "type": "address"
        },
        {
          "internalType": "address",
          "name": "spender",
          "type": "address"
        }
      ],
      "name": "allowance",
      "outputs": [
        {
          "internalType": "uint256",
          "name": "",
          "type": "uint256"
        }
      ],
      "stateMutability": "view",
      "type": "function"
    }
  ],
  "bytecode": "0x60806040523480156200001157600080fd5b506040518060400160405280600381526020017f54494e00000000000000000000000000000000000000000000000000000000008152506000908162000058919062000425565b506040518060400160405280600981526020017f54696e6f546f6b656e0000000000000000000000000000000000000000000000815250600190816200009f919062000425565b506012600260006101000a81548160ff021916908360ff16021790555069d3c229af83a14864000060038190555060035460046000737684baff5117a57ba2ef7039b5627bce72f38de473ffffffffffffffffffffffffffffffffffffffff1673ffffffffffffffffffffffffffffffffffffffff16815260200190815260200160002081905550737684baff5117a57ba2ef7039b5627bce72f38de473ffffffffffffffffffffffffffffffffffffffff16600073ffffffffffffffffffffffffffffffffffffffff167fddf252ad1be2c89b69c2b068fc378daa952ba7f163c4a11628f55a4df523b3ef6003546040516200019d91906200051d565b60405180910390a36200053a565b600081519050919050565b7f4e487b7100000000000000000000000000000000000000000000000000000000600052604160045260246000fd5b7f4e487b7100000000000000000000000000000000000000000000000000000000600052602260045260246000fd5b600060028204905060018216806200022d57607f821691505b602082108103620002435762000242620001e5565b5b50919050565b60008190508160005260206000209050919050565b60006020601f8301049050919050565b600082821b905092915050565b600060088302620002ad7fffffffffffffffffffffffffffffffffffffffffffffffffffffffffffffffff826200026e565b620002b986836200026e565b95508019841693508086168417925050509392505050565b6000819050919050565b6000819050919050565b60006200030662000300620002fa84620002d1565b620002db565b620002d1565b9050919050565b6000819050919050565b6200032283620002e5565b6200033a62000331826200030d565b8484546200027b565b825550505050565b600090565b6200035162000342565b6200035e81848462000317565b505050565b5b8181101562000386576200037a60008262000347565b60018101905062000364565b5050565b601f821115620003d5576200039f8162000249565b620003aa846200025e565b81016020851015620003ba578190505b620003d2620003c9856200025e565b83018262000363565b50505b505050565b600082821c905092915050565b6000620003fa60001984600802620003da565b1980831691505092915050565b6000620004158383620003e7565b9150826002028217905092915050565b6200043082620001ab565b67ffffffffffffffff8111156200044c576200044b620001b6565b5b62000458825462000214565b620004658282856200038a565b600060209050601f8311600181146200049d576000841562000488578287015190505b62000494858262000407565b86555062000504565b601f198416620004ad8662000249565b60005b82811015620004d757848901518255600182019150602085019450602081019050620004b0565b86831015620004f75784890151620004f3601f891682620003e7565b8355505b6001600288020188555050505b505050505050565b6200051781620002d1565b82525050565b60006020820190506200053460008301846200050c565b92915050565b610da6806200054a6000396000f3fe608060405234801561001057600080fd5b506004361061009e5760003560e01c80633eaaf86b116100665780633eaaf86b1461015d57806370a082311461017b57806395d89b41146101ab578063a9059cbb146101c9578063dd62ed3e146101f95761009e565b806306fdde03146100a3578063095ea7b3146100c157806318160ddd146100f157806323b872dd1461010f578063313ce5671461013f575b600080fd5b6100ab610229565b6040516100b89190610a27565b60405180910390f35b6100db60048036038101906100d69190610ae2565b6102b7565b6040516100e89190610b3d565b60405180910390f35b6100f96103a9565b6040516101069190610b67565b60405180910390f35b61012960048036038101906101249190610b82565b6103fd565b6040516101369190610b3d565b60405180910390f35b610147610693565b6040516101549190610bf1565b60405180910390f35b6101656106a6565b6040516101729190610b67565b60405180910390f35b61019560048036038101906101909190610c0c565b6106ac565b6040516101a29190610b67565b60405180910390f35b6101b36106f5565b6040516101c09190610a27565b60405180910390f35b6101e360048036038101906101de9190610ae2565b610783565b6040516101f09190610b3d565b60405180910390f35b610213600480360381019061020e9190610c39565b610910565b6040516102209190610b67565b60405180910390f35b6001805461023690610ca8565b80601f016020809104026020016040519081016040528092919081815260200182805461026290610ca8565b80156102af5780601f10610284576101008083540402835291602001916102af565b820191906000526020600020905b81548152906001019060200180831161029257829003601f168201915b505050505081565b600081600560003373ffffffffffffffffffffffffffffffffffffffff1673ffffffffffffffffffffffffffffffffffffffff16815260200190815260200160002060008573ffffffffffffffffffffffffffffffffffffffff1673ffffffffffffffffffffffffffffffffffffffff168152602001908152602001600020819055508273ffffffffffffffffffffffffffffffffffffffff163373ffffffffffffffffffffffffffffffffffffffff167f8c5be1e5ebec7d5bd14f71427d1e84f3dd0314c0f7b2291e5b200ac8c7c3b925846040516103979190610b67565b60405180910390a36001905092915050565b6000600460008073ffffffffffffffffffffffffffffffffffffffff1673ffffffffffffffffffffffffffffffffffffffff168152602001908152602001600020546003546103f89190610d08565b905090565b600081600460008673ffffffffffffffffffffffffffffffffffffffff1673ffffffffffffffffffffffffffffffffffffffff1681526020019081526020016000205461044a9190610d08565b600460008673ffffffffffffffffffffffffffffffffffffffff1673ffffffffffffffffffffffffffffffffffffffff1681526020019081526020016000208190555081600560008673ffffffffffffffffffffffffffffffffffffffff1673ffffffffffffffffffffffffffffffffffffffff16815260200190815260200160002060003373ffffffffffffffffffffffffffffffffffffffff1673ffffffffffffffffffffffffffffffffffffffff168152602001908152602001600020546105159190610d08565b600560008673ffffffffffffffffffffffffffffffffffffffff1673ffffffffffffffffffffffffffffffffffffffff16815260200190815260200160002060003373ffffffffffffffffffffffffffffffffffffffff1673ffffffffffffffffffffffffffffffffffffffff1681526020019081526020016000208190555081600460008573ffffffffffffffffffffffffffffffffffffffff1673ffffffffffffffffffffffffffffffffffffffff168152602001908152602001600020546105e09190610d3c565b600460008573ffffffffffffffffffffffffffffffffffffffff1673ffffffffffffffffffffffffffffffffffffffff168152602001908152602001600020819055508273ffffffffffffffffffffffffffffffffffffffff168473ffffffffffffffffffffffffffffffffffffffff167fddf252ad1be2c89b69c2b068fc378daa952ba7f163c4a11628f55a4df523b3ef846040516106809190610b67565b60405180910390a3600190509392505050565b600260009054906101000a900460ff1681565b60035481565b6000600460008373ffffffffffffffffffffffffffffffffffffffff1673ffffffffffffffffffffffffffffffffffffffff168152602001908152602001600020549050919050565b6000805461070290610ca8565b80601f016020809104026020016040519081016040528092919081815260200182805461072e90610ca8565b801561077b5780601f106107505761010080835404028352916020019161077b565b820191906000526020600020905b81548152906001019060200180831161075e57829003601f168201915b505050505081565b600081600460003373ffffffffffffffffffffffffffffffffffffffff1673ffffffffffffffffffffffffffffffffffffffff168152602001908152602001600020546107d09190610d08565b600460003373ffffffffffffffffffffffffffffffffffffffff1673ffffffffffffffffffffffffffffffffffffffff1681526020019081526020016000208190555081600460008573ffffffffffffffffffffffffffffffffffffffff1673ffffffffffffffffffffffffffffffffffffffff1681526020019081526020016000205461085e9190610d3c565b600460008573ffffffffffffffffffffffffffffffffffffffff1673ffffffffffffffffffffffffffffffffffffffff168152602001908152602001600020819055508273ffffffffffffffffffffffffffffffffffffffff163373ffffffffffffffffffffffffffffffffffffffff167fddf252ad1be2c89b69c2b068fc378daa952ba7f163c4a11628f55a4df523b3ef846040516108fe9190610b67565b60405180910390a36001905092915050565b6000600560008473ffffffffffffffffffffffffffffffffffffffff1673ffffffffffffffffffffffffffffffffffffffff16815260200190815260200160002060008373ffffffffffffffffffffffffffffffffffffffff1673ffffffffffffffffffffffffffffffffffffffff16815260200190815260200160002054905092915050565b600081519050919050565b600082825260208201905092915050565b60005b838110156109d15780820151818401526020810190506109b6565b60008484015250505050565b6000601f19601f8301169050919050565b60006109f982610997565b610a0381856109a2565b9350610a138185602086016109b3565b610a1c816109dd565b840191505092915050565b60006020820190508181036000830152610a4181846109ee565b905092915050565b600080fd5b600073ffffffffffffffffffffffffffffffffffffffff82169050919050565b6000610a7982610a4e565b9050919050565b610a8981610a6e565b8114610a9457600080fd5b50565b600081359050610aa681610a80565b92915050565b6000819050919050565b610abf81610aac565b8114610aca57600080fd5b50565b600081359050610adc81610ab6565b92915050565b60008060408385031215610af957610af8610a49565b5b6000610b0785828601610a97565b9250506020610b1885828601610acd565b9150509250929050565b60008115159050919050565b610b3781610b22565b82525050565b6000602082019050610b526000830184610b2e565b92915050565b610b6181610aac565b82525050565b6000602082019050610b7c6000830184610b58565b92915050565b600080600060608486031215610b9b57610b9a610a49565b5b6000610ba986828701610a97565b9350506020610bba86828701610a97565b9250506040610bcb86828701610acd565b9150509250925092565b600060ff82169050919050565b610beb81610bd5565b82525050565b6000602082019050610c066000830184610be2565b92915050565b600060208284031215610c2257610c21610a49565b5b6000610c3084828501610a97565b91505092915050565b60008060408385031215610c5057610c4f610a49565b5b6000610c5e85828601610a97565b9250506020610c6f85828601610a97565b9150509250929050565b7f4e487b7100000000000000000000000000000000000000000000000000000000600052602260045260246000fd5b60006002820490506001821680610cc057607f821691505b602082108103610cd357610cd2610c79565b5b50919050565b7f4e487b7100000000000000000000000000000000000000000000000000000000600052601160045260246000fd5b6000610d1382610aac565b9150610d1e83610aac565b9250828203905081811115610d3657610d35610cd9565b5b92915050565b6000610d4782610aac565b9150610d5283610aac565b9250828201905080821115610d6a57610d69610cd9565b5b9291505056fea26469706673582212208d0358cb5af76f4b8380ab994fac7c7afe7cc2a2efe3063ae2908c1c3ed6c22364736f6c63430008130033",
  "immutableReferences": {},
  "source": "//SPDX-License-Identifier: MIT\r\npragma solidity ^0.8.19;\r\n\r\ninterface IERC20 {\r\n    function totalSupply() external view returns (uint);\r\n\r\n    function balanceOf(address account) external view returns (uint);\r\n\r\n    function transfer(address recipient, uint amount) external returns (bool success);\r\n\r\n    function allowance(address owner, address spender) external view returns (uint);\r\n\r\n    function approve(address spender, uint amount) external returns (bool success);\r\n\r\n    function transferFrom(\r\n        address sender,\r\n        address recipient,\r\n        uint amount\r\n    ) external returns (bool success);\r\n\r\n    event Transfer(address indexed from, address indexed to, uint value);\r\n    event Approval(address indexed owner, address indexed spender, uint value);\r\n}\r\n\r\n//Actual contract\r\ncontract TinoToken is IERC20 {\r\n    string public symbol;\r\n    string public name;\r\n    uint8 public decimals;\r\n    uint public _totalSupply;\r\n\r\n    mapping (address => uint) balances;\r\n    mapping (address => mapping (address => uint)) allowed;\r\n\r\n    constructor() {\r\n        symbol = \"TIN\";\r\n        name = \"TinoToken\";\r\n        decimals = 18;\r\n        _totalSupply= 1_000_001_000_000_000_000_000_000;\r\n        balances[0x7684BaFF5117a57BA2eF7039b5627Bce72f38De4] = _totalSupply;\r\n        emit Transfer(address(0), 0x7684BaFF5117a57BA2eF7039b5627Bce72f38De4, _totalSupply);\r\n    }\r\n\r\n    function totalSupply() external view returns (uint) {\r\n        return _totalSupply - balances[address(0)];\r\n    }\r\n\r\n    function balanceOf(address account) external view returns (uint) {\r\n        return balances[account];\r\n    }\r\n\r\n    function transfer(address recipient, uint amount) external returns (bool success) {\r\n        balances[msg.sender] = balances[msg.sender] - amount;\r\n        balances[recipient] = balances[recipient] + amount;\r\n        emit Transfer(msg.sender, recipient, amount);\r\n        return true;\r\n    }\r\n\r\n    function approve(address spender, uint amount) external returns (bool success) {\r\n        allowed[msg.sender][spender] = amount;\r\n        emit Approval(msg.sender, spender, amount);\r\n        return true;\r\n    }\r\n\r\n    function transferFrom(address sender, address recipient, uint amount) external returns (bool success) {\r\n        balances[sender] = balances[sender] - amount;\r\n        allowed[sender][msg.sender] = allowed[sender][msg.sender] - amount;\r\n        balances[recipient] = balances[recipient] + amount;\r\n        emit Transfer(sender, recipient, amount);\r\n        return true;\r\n    }\r\n\r\n    function allowance(address owner, address spender) external view returns (uint) {\r\n        return allowed[owner][spender];\r\n    }\r\n}",
  "sourcePath": "D:\\Dapps\\Token\\contracts\\token.sol",
  "compiler": {
    "name": "solc",
    "version": "0.8.19+commit.7dd6d404.Emscripten.clang"
  },
  "schemaVersion": "3.4.13",
  "updatedAt": "2023-05-15T15:10:59.415Z",
  "devdoc": {
    "kind": "dev",
    "methods": {},
    "version": 1
  },
  "userdoc": {
    "kind": "user",
    "methods": {},
    "version": 1
  }
}